{"abi":[{"type":"function","name":"commentIdIncrement","inputs":[],"outputs":[{"name":"","type":"uint256","internalType":"uint256"}],"stateMutability":"view"},{"type":"function","name":"comments","inputs":[{"name":"","type":"uint256","internalType":"uint256"}],"outputs":[{"name":"owner","type":"address","internalType":"address"},{"name":"id","type":"uint256","internalType":"uint256"},{"name":"title","type":"string","internalType":"string"},{"name":"description","type":"string","internalType":"string"},{"name":"spoil","type":"bool","internalType":"bool"},{"name":"likes","type":"uint256","internalType":"uint256"},{"name":"timestamp","type":"uint256","internalType":"uint256"}],"stateMutability":"view"},{"type":"function","name":"compareStringsbyBytes","inputs":[{"name":"s1","type":"string","internalType":"string"},{"name":"s2","type":"string","internalType":"string"}],"outputs":[{"name":"","type":"bool","internalType":"bool"}],"stateMutability":"pure"},{"type":"function","name":"createComment","inputs":[{"name":"_postId","type":"uint256","internalType":"uint256"},{"name":"_title","type":"string","internalType":"string"},{"name":"_description","type":"string","internalType":"string"},{"name":"_spoil","type":"bool","internalType":"bool"}],"outputs":[{"name":"","type":"uint256","internalType":"uint256"}],"stateMutability":"nonpayable"},{"type":"function","name":"createPoll","inputs":[{"name":"_postId","type":"uint256","internalType":"uint256"},{"name":"_question","type":"string","internalType":"string"},{"name":"_option1","type":"string","internalType":"string"},{"name":"_option2","type":"string","internalType":"string"}],"outputs":[{"name":"","type":"uint256","internalType":"uint256"}],"stateMutability":"nonpayable"},{"type":"function","name":"createPost","inputs":[{"name":"_title","type":"string","internalType":"string"},{"name":"_description","type":"string","internalType":"string"},{"name":"_spoil","type":"bool","internalType":"bool"}],"outputs":[{"name":"","type":"uint256","internalType":"uint256"}],"stateMutability":"nonpayable"},{"type":"function","name":"downVoteComment","inputs":[{"name":"_commentId","type":"uint256","internalType":"uint256"}],"outputs":[],"stateMutability":"nonpayable"},{"type":"function","name":"downVotePost","inputs":[{"name":"_postId","type":"uint256","internalType":"uint256"}],"outputs":[],"stateMutability":"nonpayable"},{"type":"function","name":"getComment","inputs":[{"name":"_commentId","type":"uint256","internalType":"uint256"}],"outputs":[{"name":"","type":"tuple","internalType":"struct Forum.Comment","components":[{"name":"owner","type":"address","internalType":"address"},{"name":"id","type":"uint256","internalType":"uint256"},{"name":"title","type":"string","internalType":"string"},{"name":"description","type":"string","internalType":"string"},{"name":"spoil","type":"bool","internalType":"bool"},{"name":"likes","type":"uint256","internalType":"uint256"},{"name":"timestamp","type":"uint256","internalType":"uint256"}]}],"stateMutability":"view"},{"type":"function","name":"getCommentsFromPost","inputs":[{"name":"_postId","type":"uint256","internalType":"uint256"}],"outputs":[{"name":"","type":"uint256[]","internalType":"uint256[]"}],"stateMutability":"view"},{"type":"function","name":"getPoll","inputs":[{"name":"_pollId","type":"uint256","internalType":"uint256"}],"outputs":[{"name":"","type":"tuple","internalType":"struct Forum.Poll","components":[{"name":"id","type":"uint256","internalType":"uint256"},{"name":"question","type":"string","internalType":"string"},{"name":"option1","type":"string","internalType":"string"},{"name":"option2","type":"string","internalType":"string"},{"name":"option1Counter","type":"uint256","internalType":"uint256"},{"name":"option2Counter","type":"uint256","internalType":"uint256"}]}],"stateMutability":"view"},{"type":"function","name":"getPollFromPost","inputs":[{"name":"_postId","type":"uint256","internalType":"uint256"}],"outputs":[{"name":"","type":"tuple","internalType":"struct Forum.Poll","components":[{"name":"id","type":"uint256","internalType":"uint256"},{"name":"question","type":"string","internalType":"string"},{"name":"option1","type":"string","internalType":"string"},{"name":"option2","type":"string","internalType":"string"},{"name":"option1Counter","type":"uint256","internalType":"uint256"},{"name":"option2Counter","type":"uint256","internalType":"uint256"}]}],"stateMutability":"view"},{"type":"function","name":"getPost","inputs":[{"name":"_postId","type":"uint256","internalType":"uint256"}],"outputs":[{"name":"","type":"tuple","internalType":"struct Forum.Post","components":[{"name":"owner","type":"address","internalType":"address"},{"name":"id","type":"uint256","internalType":"uint256"},{"name":"title","type":"string","internalType":"string"},{"name":"description","type":"string","internalType":"string"},{"name":"spoil","type":"bool","internalType":"bool"},{"name":"likes","type":"uint256","internalType":"uint256"},{"name":"timestamp","type":"uint256","internalType":"uint256"}]}],"stateMutability":"view"},{"type":"function","name":"getPostsFromAddress","inputs":[{"name":"_user","type":"address","internalType":"address"}],"outputs":[{"name":"","type":"uint256[]","internalType":"uint256[]"}],"stateMutability":"view"},{"type":"function","name":"pollIdIncrement","inputs":[],"outputs":[{"name":"","type":"uint256","internalType":"uint256"}],"stateMutability":"view"},{"type":"function","name":"polls","inputs":[{"name":"","type":"uint256","internalType":"uint256"}],"outputs":[{"name":"id","type":"uint256","internalType":"uint256"},{"name":"question","type":"string","internalType":"string"},{"name":"option1","type":"string","internalType":"string"},{"name":"option2","type":"string","internalType":"string"},{"name":"option1Counter","type":"uint256","internalType":"uint256"},{"name":"option2Counter","type":"uint256","internalType":"uint256"}],"stateMutability":"view"},{"type":"function","name":"postIdIncrement","inputs":[],"outputs":[{"name":"","type":"uint256","internalType":"uint256"}],"stateMutability":"view"},{"type":"function","name":"postToPoll","inputs":[{"name":"","type":"uint256","internalType":"uint256"}],"outputs":[{"name":"","type":"uint256","internalType":"uint256"}],"stateMutability":"view"},{"type":"function","name":"posts","inputs":[{"name":"","type":"uint256","internalType":"uint256"}],"outputs":[{"name":"owner","type":"address","internalType":"address"},{"name":"id","type":"uint256","internalType":"uint256"},{"name":"title","type":"string","internalType":"string"},{"name":"description","type":"string","internalType":"string"},{"name":"spoil","type":"bool","internalType":"bool"},{"name":"likes","type":"uint256","internalType":"uint256"},{"name":"timestamp","type":"uint256","internalType":"uint256"}],"stateMutability":"view"},{"type":"function","name":"upVoteComment","inputs":[{"name":"_commentId","type":"uint256","internalType":"uint256"}],"outputs":[],"stateMutability":"nonpayable"},{"type":"function","name":"upVotePollOption","inputs":[{"name":"_postId","type":"uint256","internalType":"uint256"},{"name":"option","type":"string","internalType":"string"}],"outputs":[],"stateMutability":"nonpayable"},{"type":"function","name":"upVotePost","inputs":[{"name":"_postId","type":"uint256","internalType":"uint256"}],"outputs":[],"stateMutability":"nonpayable"},{"type":"function","name":"userPolls","inputs":[{"name":"","type":"address","internalType":"address"},{"name":"","type":"uint256","internalType":"uint256"}],"outputs":[{"name":"","type":"uint256","internalType":"uint256"}],"stateMutability":"view"},{"type":"function","name":"userVotedComments","inputs":[{"name":"","type":"address","internalType":"address"},{"name":"","type":"uint256","internalType":"uint256"}],"outputs":[{"name":"","type":"uint256","internalType":"uint256"}],"stateMutability":"view"},{"type":"function","name":"userVotedPosts","inputs":[{"name":"","type":"address","internalType":"address"},{"name":"","type":"uint256","internalType":"uint256"}],"outputs":[{"name":"","type":"uint256","internalType":"uint256"}],"stateMutability":"view"},{"type":"event","name":"PostSubmitted","inputs":[{"name":"userAddress","type":"address","indexed":true,"internalType":"address"},{"name":"post","type":"tuple","indexed":false,"internalType":"struct Forum.Post","components":[{"name":"owner","type":"address","internalType":"address"},{"name":"id","type":"uint256","internalType":"uint256"},{"name":"title","type":"string","internalType":"string"},{"name":"description","type":"string","internalType":"string"},{"name":"spoil","type":"bool","internalType":"bool"},{"name":"likes","type":"uint256","internalType":"uint256"},{"name":"timestamp","type":"uint256","internalType":"uint256"}]}],"anonymous":false}],"bytecode":{"object":"0x60806040526001600055600180556001600255348015601d57600080fd5b50611e118061002d6000396000f3fe608060405234801561001057600080fd5b50600436106101735760003560e01c806340288e1c116100de5780638e07bba211610097578063bc8fd68511610071578063bc8fd68514610357578063c250bd811461036a578063c60fa0fa1461037d578063e9a734ff1461039057600080fd5b80638e07bba21461030c5780638ebb4c151461031f578063ac2f00741461033257600080fd5b806340288e1c1461028a57806340731c24146102aa5780635fd8cf12146102bd5780636cc3f3c6146102c65780637e9545b4146102e657806387bcfd68146102f957600080fd5b80631b25fd07116101305780631b25fd071461022257806321828f821461023557806324844ea31461024857806328fba2321461025b5780633c9066af1461026e5780633ceb7c861461028157600080fd5b80630665e792146101785780630800e3001461019e5780630b1e7f83146101be5780630e98745e146101e4578063138c40d1146101ed5780631a8cbcaa14610202575b600080fd5b61018b61018636600461158f565b6103b3565b6040519081526020015b60405180910390f35b6101b16101ac3660046115b9565b6103e4565b6040516101959190611699565b6101d16101cc3660046115b9565b61060e565b60405161019597969594939291906116b3565b61018b60025481565b6102006101fb3660046115b9565b610769565b005b6102156102103660046115b9565b61083d565b604051610195919061170c565b61018b61023036600461158f565b610ab8565b6102006102433660046115b9565b610ad4565b6102006102563660046115b9565b610b61565b6102156102693660046115b9565b610ba2565b61018b61027c36600461158f565b610c1e565b61018b60015481565b61029d6102983660046115b9565b610c3a565b604051610195919061178e565b6101b16102b83660046115b9565b610cbe565b61018b60005481565b61018b6102d43660046115b9565b60076020526000908152604090205481565b61018b6102f4366004611884565b610d75565b61018b610307366004611905565b610e9a565b61020061031a3660046115b9565b610fa1565b6101d161032d3660046115b9565b610fe2565b6103456103403660046115b9565b611014565b604051610195969594939291906119a0565b6102006103653660046119f5565b6111e1565b61018b610378366004611a3b565b6113af565b61029d61038b366004611ab2565b6114af565b6103a361039e366004611acd565b611519565b6040519015158152602001610195565b600a60205281600052604060002081815481106103cf57600080fd5b90600052602060002001600091509150505481565b61042f6040518060e0016040528060006001600160a01b0316815260200160008152602001606081526020016060815260200160001515815260200160008152602001600081525090565b6002548211156104865760405162461bcd60e51b815260206004820152601760248201527f436f6d6d656e7420646f6573206e6f742065786973742100000000000000000060448201526064015b60405180910390fd5b600082815260066020908152604091829020825160e08101845281546001600160a01b0316815260018201549281019290925260028101805492939192918401916104d090611b1e565b80601f01602080910402602001604051908101604052809291908181526020018280546104fc90611b1e565b80156105495780601f1061051e57610100808354040283529160200191610549565b820191906000526020600020905b81548152906001019060200180831161052c57829003601f168201915b5050505050815260200160038201805461056290611b1e565b80601f016020809104026020016040519081016040528092919081815260200182805461058e90611b1e565b80156105db5780601f106105b0576101008083540402835291602001916105db565b820191906000526020600020905b8154815290600101906020018083116105be57829003601f168201915b5050509183525050600482015460ff16151560208201526005820154604082015260069091015460609091015292915050565b6004602052600090815260409020805460018201546002830180546001600160a01b0390931693919261064090611b1e565b80601f016020809104026020016040519081016040528092919081815260200182805461066c90611b1e565b80156106b95780601f1061068e576101008083540402835291602001916106b9565b820191906000526020600020905b81548152906001019060200180831161069c57829003601f168201915b5050505050908060030180546106ce90611b1e565b80601f01602080910402602001604051908101604052809291908181526020018280546106fa90611b1e565b80156107475780601f1061071c57610100808354040283529160200191610747565b820191906000526020600020905b81548152906001019060200180831161072a57829003601f168201915b5050505060048301546005840154600690940154929360ff9091169290915087565b60025481111561078b5760405162461bcd60e51b815260040161047d90611b58565b600081815260066020526040902060058101546107a9906001611b9c565b60058201556000828152600660205260409020815481546001600160a01b0319166001600160a01b039091161781556001808301549082015581906002808201906107f690840182611bfe565b5060038181019061080990840182611bfe565b50600482810154908201805460ff191660ff9092161515919091179055600580830154908201556006918201549101555050565b6108766040518060c001604052806000815260200160608152602001606081526020016060815260200160008152602001600081525090565b6001548211156108bf5760405162461bcd60e51b8152602060048201526014602482015273506f6c6c20646f6573206e6f742065786973742160601b604482015260640161047d565b600560008381526020019081526020016000206040518060c0016040529081600082015481526020016001820180546108f790611b1e565b80601f016020809104026020016040519081016040528092919081815260200182805461092390611b1e565b80156109705780601f1061094557610100808354040283529160200191610970565b820191906000526020600020905b81548152906001019060200180831161095357829003601f168201915b5050505050815260200160028201805461098990611b1e565b80601f01602080910402602001604051908101604052809291908181526020018280546109b590611b1e565b8015610a025780601f106109d757610100808354040283529160200191610a02565b820191906000526020600020905b8154815290600101906020018083116109e557829003601f168201915b50505050508152602001600382018054610a1b90611b1e565b80601f0160208091040260200160405190810160405280929190818152602001828054610a4790611b1e565b8015610a945780601f10610a6957610100808354040283529160200191610a94565b820191906000526020600020905b815481529060010190602001808311610a7757829003601f168201915b50505050508152602001600482015481526020016005820154815250509050919050565b600960205281600052604060002081815481106103cf57600080fd5b600054811115610af65760405162461bcd60e51b815260040161047d90611b58565b60008181526004602052604090206005810154610b14906001611b9c565b60058201556000828152600460205260409020815481546001600160a01b0319166001600160a01b039091161781556001808301549082015581906002808201906107f690840182611bfe565b600054811115610b835760405162461bcd60e51b815260040161047d90611b58565b60008181526004602052604090206005810154610b1490600190611cdd565b610bdb6040518060c001604052806000815260200160608152602001606081526020016060815260200160008152602001600081525090565b600054821115610bfd5760405162461bcd60e51b815260040161047d90611b58565b60008281526007602052604081205490610c168261083d565b949350505050565b600b60205281600052604060002081815481106103cf57600080fd5b6060600054821115610c5e5760405162461bcd60e51b815260040161047d90611b58565b60008281526008602090815260409182902080548351818402810184019094528084529091830182828015610cb257602002820191906000526020600020905b815481526020019060010190808311610c9e575b50505050509050919050565b610d096040518060e0016040528060006001600160a01b0316815260200160008152602001606081526020016060815260200160001515815260200160008152602001600081525090565b600054821115610d2b5760405162461bcd60e51b815260040161047d90611b58565b600082815260046020908152604091829020825160e08101845281546001600160a01b0316815260018201549281019290925260028101805492939192918401916104d090611b1e565b60008054851115610d985760405162461bcd60e51b815260040161047d90611b58565b6002805460009182610da983611cf0565b909155506040805160e08101825233815260208082018481528284018a8152606084018a90528815156080850152600060a085018190524260c0860152868152600690935293909120825181546001600160a01b0319166001600160a01b03909116178155905160018201559151929350916002820190610e2a9082611d09565b5060608201516003820190610e3f9082611d09565b50608082015160048201805460ff191691151591909117905560a0820151600582015560c090910151600690910155600095865260086020908152604087208054600181018255908852962090950185905550929392505050565b60008054851115610ebd5760405162461bcd60e51b815260040161047d90611b58565b6001805460009182610ece83611cf0565b909155506040805160c08101825282815260208082018981528284018990526060830188905260006080840181905260a084018190528581526005909252929020815181559151929350916001820190610f289082611d09565b5060408201516002820190610f3d9082611d09565b5060608201516003820190610f529082611d09565b506080820151600482015560a0909101516005909101556000868152600760209081526040808320849055338352600b8252822080546001810182559083529120018190559050949350505050565b600254811115610fc35760405162461bcd60e51b815260040161047d90611b58565b600081815260066020526040902060058101546107a990600190611cdd565b6006602052600090815260409020805460018201546002830180546001600160a01b0390931693919261064090611b1e565b6005602052600090815260409020805460018201805491929161103690611b1e565b80601f016020809104026020016040519081016040528092919081815260200182805461106290611b1e565b80156110af5780601f10611084576101008083540402835291602001916110af565b820191906000526020600020905b81548152906001019060200180831161109257829003601f168201915b5050505050908060020180546110c490611b1e565b80601f01602080910402602001604051908101604052809291908181526020018280546110f090611b1e565b801561113d5780601f106111125761010080835404028352916020019161113d565b820191906000526020600020905b81548152906001019060200180831161112057829003601f168201915b50505050509080600301805461115290611b1e565b80601f016020809104026020016040519081016040528092919081815260200182805461117e90611b1e565b80156111cb5780601f106111a0576101008083540402835291602001916111cb565b820191906000526020600020905b8154815290600101906020018083116111ae57829003601f168201915b5050505050908060040154908060050154905086565b6000548211156112035760405162461bcd60e51b815260040161047d90611b58565b6000828152600760209081526040808320548352600590915290206002810180546112b6919061123290611b1e565b80601f016020809104026020016040519081016040528092919081815260200182805461125e90611b1e565b80156112ab5780601f10611280576101008083540402835291602001916112ab565b820191906000526020600020905b81548152906001019060200180831161128e57829003601f168201915b505050505083611519565b156112d7576004810180549060006112cd83611cf0565b919050555061133d565b6112e981600301805461123290611b1e565b15611300576005810180549060006112cd83611cf0565b60405162461bcd60e51b81526020600482015260126024820152712737ba1030903b30b634b21037b83a34b7b760711b604482015260640161047d565b60008381526007602090815260408083205483526005909152902081548155819060018082019061137090840182611bfe565b5060028181019061138390840182611bfe565b5060038181019061139690840182611bfe565b5060048281015490820155600591820154910155505050565b60008054819081806113c083611cf0565b909155506040805160e08101825233815260208082018481528284018a8152606084018a90528815156080850152600060a085018190524260c0860152868152600490935293909120825181546001600160a01b0319166001600160a01b039091161781559051600182015591519293509160028201906114419082611d09565b50606082015160038201906114569082611d09565b50608082015160048201805460ff191691151591909117905560a0820151600582015560c09091015160069091015533600090815260036020908152604082208054600181018255908352912001819055949350505050565b6001600160a01b038116600090815260036020908152604091829020805483518184028101840190945280845260609392830182828015610cb25760200282019190600052602060002090815481526020019060010190808311610c9e5750505050509050919050565b60008160405160200161152c9190611dbf565b60405160208183030381529060405280519060200120836040516020016115539190611dbf565b604051602081830303815290604052805190602001201490505b92915050565b80356001600160a01b038116811461158a57600080fd5b919050565b600080604083850312156115a257600080fd5b6115ab83611573565b946020939093013593505050565b6000602082840312156115cb57600080fd5b5035919050565b60005b838110156115ed5781810151838201526020016115d5565b50506000910152565b6000815180845261160e8160208601602086016115d2565b601f01601f19169290920160200192915050565b60018060a01b038151168252602081015160208301526000604082015160e0604085015261165360e08501826115f6565b90506060830151848203606086015261166c82826115f6565b91505060808301511515608085015260a083015160a085015260c083015160c08501528091505092915050565b6020815260006116ac6020830184611622565b9392505050565b60018060a01b038816815286602082015260e0604082015260006116da60e08301886115f6565b82810360608401526116ec81886115f6565b9515156080840152505060a081019290925260c090910152949350505050565b60208152815160208201526000602083015160c0604084015261173260e08401826115f6565b90506040840151601f1984830301606085015261174f82826115f6565b9150506060840151601f1984830301608085015261176d82826115f6565b915050608084015160a084015260a084015160c08401528091505092915050565b602080825282518282018190526000918401906040840190835b818110156117c65783518352602093840193909201916001016117a8565b509095945050505050565b634e487b7160e01b600052604160045260246000fd5b600082601f8301126117f857600080fd5b81356001600160401b03811115611811576118116117d1565b604051601f8201601f19908116603f011681016001600160401b038111828210171561183f5761183f6117d1565b60405281815283820160200185101561185757600080fd5b816020850160208301376000918101602001919091529392505050565b8035801515811461158a57600080fd5b6000806000806080858703121561189a57600080fd5b8435935060208501356001600160401b038111156118b757600080fd5b6118c3878288016117e7565b93505060408501356001600160401b038111156118df57600080fd5b6118eb878288016117e7565b9250506118fa60608601611874565b905092959194509250565b6000806000806080858703121561191b57600080fd5b8435935060208501356001600160401b0381111561193857600080fd5b611944878288016117e7565b93505060408501356001600160401b0381111561196057600080fd5b61196c878288016117e7565b92505060608501356001600160401b0381111561198857600080fd5b611994878288016117e7565b91505092959194509250565b86815260c0602082015260006119b960c08301886115f6565b82810360408401526119cb81886115f6565b905082810360608401526119df81876115f6565b6080840195909552505060a00152949350505050565b60008060408385031215611a0857600080fd5b8235915060208301356001600160401b03811115611a2557600080fd5b611a31858286016117e7565b9150509250929050565b600080600060608486031215611a5057600080fd5b83356001600160401b03811115611a6657600080fd5b611a72868287016117e7565b93505060208401356001600160401b03811115611a8e57600080fd5b611a9a868287016117e7565b925050611aa960408501611874565b90509250925092565b600060208284031215611ac457600080fd5b6116ac82611573565b60008060408385031215611ae057600080fd5b82356001600160401b03811115611af657600080fd5b611b02858286016117e7565b92505060208301356001600160401b03811115611a2557600080fd5b600181811c90821680611b3257607f821691505b602082108103611b5257634e487b7160e01b600052602260045260246000fd5b50919050565b602080825260149082015273506f737420646f6573206e6f742065786973742160601b604082015260600190565b634e487b7160e01b600052601160045260246000fd5b8082018082111561156d5761156d611b86565b601f821115611bf957806000526020600020601f840160051c81016020851015611bd65750805b601f840160051c820191505b81811015611bf65760008155600101611be2565b50505b505050565b818103611c09575050565b611c138254611b1e565b6001600160401b03811115611c2a57611c2a6117d1565b611c3e81611c388454611b1e565b84611baf565b6000601f821160018114611c755760008315611c5a5750848201545b600184901b600019600386901b1c198216175b855550611bf6565b600085815260209020601f19841690600086815260209020845b83811015611caf5782860154825560019586019590910190602001611c8f565b5085831015611ccd5781850154600019600388901b60f8161c191681555b5050505050600190811b01905550565b8181038181111561156d5761156d611b86565b600060018201611d0257611d02611b86565b5060010190565b81516001600160401b03811115611d2257611d226117d1565b611d3081611c388454611b1e565b6020601f821160018114611d625760008315611c5a575081850151600184901b600019600386901b1c19821617611c6d565b600084815260208120601f198516915b82811015611d925787850151825560209485019460019092019101611d72565b5084821015611db05786840151600019600387901b60f8161c191681555b50505050600190811b01905550565b60008251611dd18184602087016115d2565b919091019291505056fea26469706673582212205f962df97e9920b2bcd8644da8aefeb74203ebdb968a4230983dc324578d653f64736f6c634300081a0033","linkReferences":{}},"methodIdentifiers":{"commentIdIncrement()":"0e98745e","comments(uint256)":"8ebb4c15","compareStringsbyBytes(string,string)":"e9a734ff","createComment(uint256,string,string,bool)":"7e9545b4","createPoll(uint256,string,string,string)":"87bcfd68","createPost(string,string,bool)":"c250bd81","downVoteComment(uint256)":"8e07bba2","downVotePost(uint256)":"24844ea3","getComment(uint256)":"0800e300","getCommentsFromPost(uint256)":"40288e1c","getPoll(uint256)":"1a8cbcaa","getPollFromPost(uint256)":"28fba232","getPost(uint256)":"40731c24","getPostsFromAddress(address)":"c60fa0fa","pollIdIncrement()":"3ceb7c86","polls(uint256)":"ac2f0074","postIdIncrement()":"5fd8cf12","postToPoll(uint256)":"6cc3f3c6","posts(uint256)":"0b1e7f83","upVoteComment(uint256)":"138c40d1","upVotePollOption(uint256,string)":"bc8fd685","upVotePost(uint256)":"21828f82","userPolls(address,uint256)":"3c9066af","userVotedComments(address,uint256)":"0665e792","userVotedPosts(address,uint256)":"1b25fd07"},"id":27}